:100000000C942A000C943F000C943F000C943F0089
:100010000C943F000C943F000C943F000C943F0064
:100020000C943F000C943F000C943F000C943F0054
:100030000C943F000C943F000C943F000C943F0044
:100040000C943F000C943F000C943F000C943F0034
:100050000C943F0011241FBECFE5D8E0DEBFCDBF1A
:1000600011E0A0E6B0E0E4E3FFE102C005900D92EC
:10007000AE37B107D9F70E943F0E0C94980F0C943D
:100080000000EF92FF920F931F937B018C0120E001
:1000900030E040E05FE40E94410388238CF0C80117
:1000A000B70120E030E040E05FE40E94B9010E9427
:1000B000A1039B01AC01205030404040504806C095
:1000C000C801B7010E94A1039B01AC01B901CA019B
:1000D0001F910F91FF90EF900895A0E0B0E0E3E74B
:1000E000F0E00C941C0FDC012B01FA019C91923082
:1000F00008F439C1EB018881823008F433C19430AF
:1001000069F4843009F02FC111969C91119789816F
:10011000981709F428C1A6E7B0E025C1843009F496
:1001200021C18230A9F4923009F01DC19A01AD01BC
:1001300088E0EA010990AE01E90109929E0181502F
:10014000C1F7E201898111969C918923818308C1BD
:10015000923009F407C112962D903C901397EB0151
:100160008A819B811496AD90BD90CD90DC901797BD
:10017000EC80FD800E811F819101281B390BB90194
:1001800037FF04C066277727621B730B6032710547
:100190000CF061C0121613066CF537014801062EEB
:1001A00004C096948794779467940A94D2F721E0D8
:1001B00030E040E050E004C0220F331F441F551FC1
:1001C0006A95D2F721503040404050402E213F21C7
:1001D00040235123211531054105510521F021E02E
:1001E00030E040E050E079018A01E628F72808294C
:1001F00019293CC0232BD1F1260E371E35014601AB
:10020000062E04C096948794779467940A94D2F744
:1002100021E030E040E050E004C0220F331F441FD3
:10022000551F6A95D2F721503040404050402A2156
:100230003B214C215D21211531054105510521F05E
:1002400021E030E040E050E059016A01A628B728DB
:10025000C828D9280BC0821593052CF01C01AA24AC
:10026000BB24650103C0EE24FF24870111969C91F5
:10027000D20111968C91981709F445C0992339F051
:10028000A80197012A193B094C095D0906C0A6017E
:1002900095012E193F09400B510B57FD08C01182E3
:1002A0003382228224833583468357831DC081E0B5
:1002B00081833382228288279927DC01821B930B5A
:1002C000A40BB50B84839583A683B7830DC0220F3F
:1002D000331F441F551F24833583468357838281F0
:1002E000938101979383828324813581468157814D
:1002F000DA01C9010197A109B1098F5F9F4FAF4F83
:10030000BF4328F30BC0918333822282EA0CFB1C8B
:100310000C1D1D1DE482F5820683178383E0808314
:10032000248135814681578157FF1AC0C901AA2708
:1003300097FDA095BA2F81709070A070B0705695FF
:10034000479537952795822B932BA42BB52B848328
:100350009583A683B7838281938101969383828359
:10036000DF0101C0D201CD01CDB7DEB7E2E10C94CF
:10037000380FA0E2B0E0EFEBF1E00C94280F6983B6
:100380007A838B839C832D833E834F835887E9E058
:10039000EE2EF12CEC0EFD1ECE010196B7010E944F
:1003A00092058E010F5E1F4FCE010596B8010E9487
:1003B00092058A8991E089278A8BC701B801AE012D
:1003C000475E5F4F0E946D000E94BD04A096E6E06C
:1003D0000C94440FA0E2B0E0E0EFF1E00C94280FA1
:1003E00069837A838B839C832D833E834F835887D5
:1003F000F9E0EF2EF12CEC0EFD1ECE010196B701B7
:100400000E9492058E010F5E1F4FCE010596B80126
:100410000E949205C701B801AE01475E5F4F0E947E
:100420006D000E94BD04A096E6E00C94440FA0E28B
:10043000B0E0EDE1F2E00C941C0F69837A838B83CA
:100440009C832D833E834F835887CE010196BE0146
:10045000675F7F4F0E949205CE010596BE016F5ED9
:100460007F4F0E9492059985923088F08989823069
:10047000C8F0943019F4823051F404C0843029F467
:10048000923081F486E790E0C6C0923049F420E0D3
:100490009A858A89981321E02A87CE010996BBC0E4
:1004A000823049F420E09A858A89981321E02A8BCA
:1004B000CE014196B0C02D843E844F8458886D880B
:1004C0007E888F88988CEE24FF248701AA24BB2481
:1004D000650140E050E060E070E0E0E0F0E0C10184
:1004E00081709070892BE9F0E60CF71C081D191D2E
:1004F0009A01AB012A0D3B1D4C1D5D1D80E090E073
:10050000A0E0B0E0E614F7040805190520F481E046
:1005100090E0A0E0B0E0BA01A901480F591F6A1F9E
:100520007B1FAA0CBB1CCC1CDD1C97FE08C081E005
:1005300090E0A0E0B0E0A82AB92ACA2ADB2A3196C6
:10054000E032F10549F0660C771C881C991C569422
:10055000479437942794C3CFFA85EA892B893C893D
:100560008B859C85280F391F2E5F3F4F17C0CA010E
:1005700081709070892B61F016950795F794E79438
:1005800080E090E0A0E0B0E8E82AF92A0A2B1B2BD3
:1005900076956795579547952F5F3F4F77FDE7CF46
:1005A0000CC0440F551F661F771F17FD4160EE0CEE
:1005B000FF1C001F111F21503040403090E05907B0
:1005C00090E0690790E4790760F32B8F3C8FDB01A3
:1005D000CA018F779070A070B07080349105A1052A
:1005E000B10561F447FD0AC0E114F10401051105EC
:1005F00029F0405C5F4F6F4F7F4F40781A8EFE1797
:1006000011F081E08A8F4D8F5E8F6F8F78A383E02A
:10061000898FCE0149960E94BD04A096E2E10C9418
:10062000380FA8E1B0E0E7E1F3E00C94280F69830C
:100630007A838B839C832D833E834F83588789E005
:10064000E82EF12CEC0EFD1ECE010196B7010E94A2
:1006500092058E010F5E1F4FCE010596B8010E94D4
:1006600092058985823040F08989823028F0C7015F
:10067000B8010E940A0601C08FEF6896E6E00C946C
:10068000440FA8E1B0E0E7E4F3E00C94280F69839D
:100690007A838B839C832D833E834F83588789E0A5
:1006A000E82EF12CEC0EFD1ECE010196B7010E9442
:1006B00092058E010F5E1F4FCE010596B8010E9474
:1006C00092058985823040F08989823028F0C701FF
:1006D000B8010E940A0601C08FEF6896E6E00C940C
:1006E000440FA8E1B0E0E7E7F3E00C94280F69833A
:1006F0007A838B839C832D833E834F83588789E045
:10070000E82EF12CEC0EFD1ECE010196B7010E94E1
:1007100092058E010F5E1F4FCE010596B8010E9413
:1007200092058985823040F08989823028F0C7019E
:10073000B8010E940A0601C081E06896E6E00C94C8
:10074000440FACE0B0E0E7EAF3E00C942C0F6983CF
:100750007A838B839C83CE010196BE016B5F7F4FB2
:100760000E9492058D81823061F1823050F1843097
:1007700021F48E81882351F12EC02F81388537FDD9
:1007800020C06E812F3131051CF06623F9F023C0A3
:100790008EE190E0821B930B29853A854B855C8521
:1007A00004C056954795379527958A95D2F76623C5
:1007B000B1F050954095309521953F4F4F4F5F4F89
:1007C0000EC020E030E040E050E009C02FEF3FEFE6
:1007D0004FEF5FE704C020E030E040E050E8B901AF
:1007E000CA012C96E2E00C94480FA8E0B0E0EBEFD1
:1007F000F3E00C94240F7B018C01611571058105D8
:10080000910519F482E0898360C083E089838EE1D9
:10081000C82ED12CDC82CB82ED82FE820F8318871A
:10082000C801B7010E946E04FC013197F7FF3BC07D
:10083000222733272E1B3F0B57016801022E04C0CD
:10084000D694C794B794A7940A94D2F740E050E0A6
:1008500060E070E081E090E0A0E0B0E004C0880FCC
:10086000991FAA1FBB1F2A95D2F70197A109B109A9
:100870008E219F21A023B1230097A105B10521F06E
:1008800041E050E060E070E04A295B296C297D2955
:100890004D835E836F8378878EE190E08E1B9F0B84
:1008A0009C838B8312C0309781F00E2E04C0EE0C17
:1008B000FF1C001F111F0A94D2F7ED82FE820F83E6
:1008C0001887CE1ADF0ADC82CB821A82CE0101960B
:1008D0000E94BD042896EAE00C94400FEF92FF922C
:1008E0000F931F937B018C0180E0E81680E0F806EF
:1008F00081E0080780E0180788F48FEFE816F1041C
:100900000105110531F028F088E090E0A0E0B0E0AA
:1009100017C080E090E0A0E0B0E012C080E0E816F0
:1009200080E0F80680E0080781E0180728F088E1F9
:1009300090E0A0E0B0E004C080E190E0A0E0B0E092
:1009400020E230E040E050E0281B390B4A0B5B0B03
:1009500004C016950795F794E7948A95D2F7F701A6
:10096000E258FF4F8081281B310941095109C90113
:100970001F910F91FF90EF900895DF92EF92FF92F9
:100980000F931F93FC01E480F58006811781D180CD
:100990008081823048F480E090E0A0E1B0E0E82A75
:1009A000F92A0A2B1B2BA5C0843009F49FC0823082
:1009B00021F4EE24FF24870105C0E114F1040105B0
:1009C000110519F4E0E0F0E096C0628173819FEFB9
:1009D000623879070CF05BC022E83FEF261B370B2B
:1009E0002A3131052CF020E030E040E050E02AC010
:1009F000B801A701022E04C07695679557954795D3
:100A00000A94D2F781E090E0A0E0B0E004C0880F43
:100A1000991FAA1FBB1F2A95D2F70197A109B109F7
:100A20008E219F21A023B1230097A105B10521F0BC
:100A300081E090E0A0E0B0E09A01AB01282B392BD7
:100A40004A2B5B2BDA01C9018F779070A070B070D0
:100A500080349105A105B10539F427FF09C0205C58
:100A60003F4F4F4F5F4F04C0215C3F4F4F4F5F4F91
:100A7000E0E0F0E02030A0E03A07A0E04A07A0E480
:100A80005A0710F0E1E0F0E079018A0127C06038F0
:100A9000710564F5FB01E158FF4FD801C7018F775D
:100AA0009070A070B07080349105A105B10539F443
:100AB000E7FE0DC080E490E0A0E0B0E004C08FE36A
:100AC00090E0A0E0B0E0E80EF91E0A1F1B1F17FF20
:100AD00005C016950795F794E794319687E016952B
:100AE0000795F794E7948A95D1F705C0EE24FF2483
:100AF0008701EFEFF0E06E2F679566276795902FDF
:100B00009F77D794DD24D7948E2F8695492F462B37
:100B1000582F5D29B701CA011F910F91FF90EF90E7
:100B2000DF900895FC01DB01408151812281622F19
:100B30006F7770E0221F2227221F9381892F880F51
:100B4000822B282F30E0991F9927991F11969C938B
:100B5000119721153105A9F541155105610571055B
:100B600011F482E037C082E89FEF13969C938E9336
:100B700012979A01AB0167E0220F331F441F551FE4
:100B80006A95D1F783E08C930DC0220F331F441F69
:100B9000551F12968D919C911397019713969C93D4
:100BA0008E931297203080E0380780E0480780E479
:100BB000580758F314962D933D934D935C931797D4
:100BC00008952F3F310579F44115510561057105EF
:100BD00019F484E08C93089564FF03C081E08C9342
:100BE00012C01C9210C02F57304013963C932E9386
:100BF000129783E08C9387E0440F551F661F771F81
:100C00008A95D1F7706414964D935D936D937C93A0
:100C1000179708951F93DC01FB019C91923008F413
:100C200047C08081823008F443C0943051F411965B
:100C30001C91843099F58181682F70E0611B7109E6
:100C40003FC0843021F0923031F48230B9F181819B
:100C5000882389F12DC011961C9111978230F1F0F3
:100C600081811817D9F412962D913C9113978281A6
:100C700093818217930794F028173907BCF01496D4
:100C80008D919D910D90BC91A02D2481358146813F
:100C90005781281739074A075B0718F4112341F0D9
:100CA0000AC082179307A407B50740F4112319F06F
:100CB00061E070E005C06FEF7FEF02C060E070E0C0
:100CC000CB011F910895DF93CF93CDB7DEB7A7E295
:100CD000B0E0E7E2F0E0808180648C93A7E2B0E0CE
:100CE000E7E2F0E080818F778C93A7E2B0E0E7E263
:100CF000F0E080818F7D8C93A7E2B0E0E7E2F0E046
:100D000080818E7F8C93A7E2B0E0E7E2F0E0808103
:100D10008D7F8C93A7E2B0E0E7E2F0E080818B7FEB
:100D20008C93A6E2B0E0E6E2F0E0808181608C93F3
:100D3000A6E2B0E0E6E2F0E0808182608C93A6E279
:100D4000B0E0E6E2F0E080818B7F8C93CF91DF9181
:100D50000895DF93CF9300D0CDB7DEB78983A6E2A5
:100D6000B0E0E6E2F0E0808180688C93A6E2B0E03B
:100D7000E6E2F0E0808180648C93898189748983C4
:100D8000A7E2B0E0E7E2F0E08081982F987F8981C8
:100D9000892B8C93E6E2F0E08081E4E2F0E0808150
:100DA00091810F900F90CF91DF910895DF93CF93B2
:100DB000CDB7DEB727970FB6F894DEBF0FBECDBF15
:100DC00089836A834B838981843008F0EEC08A81ED
:100DD000883008F0EAC08B81882309F074C08981CB
:100DE000282F30E03F832E838E819F8181309105B3
:100DF00059F12E813F81223031052CF48E819F8163
:100E0000009769F0D2C02E813F812230310589F1EF
:100E10008E819F818330910509F440C0C6C0ABE349
:100E2000B0E0EBE3F0E08081482F8A81282F30E0AA
:100E300081E090E0022E02C0880F991F0A94E2F729
:100E4000809584238C93B1C0A8E3B0E0E8E3F0E0A0
:100E50008081482F8A81282F30E081E090E0022EA7
:100E600002C0880F991F0A94E2F7809584238C931F
:100E70009CC0A5E3B0E0E5E3F0E08081482F8A81E3
:100E8000282F30E081E090E0022E02C0880F991FE9
:100E90000A94E2F7809584238C9387C0A2E3B0E0A4
:100EA000E2E3F0E08081482F8A81282F30E081E062
:100EB00090E0022E02C0880F991F0A94E2F78095F5
:100EC00084238C9372C08B81813009F06EC089813C
:100ED000282F30E03D832C838C819D8181309105CA
:100EE00049F12C813D81223031052CF48C819D818A
:100EF000009761F05AC02C813D812230310571F19B
:100F00008C819D8183309105E9F14FC0ABE3B0E066
:100F1000EBE3F0E08081482F8A81282F30E081E0E8
:100F200090E0022E02C0880F991F0A94E2F7842BEA
:100F30008C933BC0A8E3B0E0E8E3F0E08081482F69
:100F40008A81282F30E081E090E0022E02C0880FD5
:100F5000991F0A94E2F7842B8C9327C0A5E3B0E095
:100F6000E5E3F0E08081482F8A81282F30E081E09E
:100F700090E0022E02C0880F991F0A94E2F7842B9A
:100F80008C9313C0A2E3B0E0E2E3F0E08081482F4D
:100F90008A81282F30E081E090E0022E02C0880F85
:100FA000991F0A94E2F7842B8C9327960FB6F89436
:100FB000DEBF0FBECDBFCF91DF910895DF93CF93FA
:100FC000CDB7DEB727970FB6F894DEBF0FBECDBF03
:100FD00089836A834B838981843008F0EEC08A81DB
:100FE000883008F0EAC08B81882309F074C08981B9
:100FF000282F30E03F832E838E819F8181309105A1
:1010000059F12E813F81223031052CF48E819F8150
:10101000009769F0D2C02E813F812230310589F1DD
:101020008E819F818330910509F440C0C6C0AAE338
:10103000B0E0EAE3F0E08081482F8A81282F30E099
:1010400081E090E0022E02C0880F991F0A94E2F717
:10105000809584238C93B1C0A7E3B0E0E7E3F0E090
:101060008081482F8A81282F30E081E090E0022E95
:1010700002C0880F991F0A94E2F7809584238C930D
:101080009CC0A4E3B0E0E4E3F0E08081482F8A81D3
:10109000282F30E081E090E0022E02C0880F991FD7
:1010A0000A94E2F7809584238C9387C0A1E3B0E093
:1010B000E1E3F0E08081482F8A81282F30E081E051
:1010C00090E0022E02C0880F991F0A94E2F78095E3
:1010D00084238C9372C08B81813009F06EC089812A
:1010E000282F30E03D832C838C819D8181309105B8
:1010F00049F12C813D81223031052CF48C819D8178
:10110000009761F05AC02C813D812230310571F188
:101110008C819D8183309105E9F14FC0AAE3B0E055
:10112000EAE3F0E08081482F8A81282F30E081E0D7
:1011300090E0022E02C0880F991F0A94E2F7842BD8
:101140008C933BC0A7E3B0E0E7E3F0E08081482F59
:101150008A81282F30E081E090E0022E02C0880FC3
:10116000991F0A94E2F7842B8C9327C0A4E3B0E084
:10117000E4E3F0E08081482F8A81282F30E081E08D
:1011800090E0022E02C0880F991F0A94E2F7842B88
:101190008C9313C0A1E3B0E0E1E3F0E08081482F3D
:1011A0008A81282F30E081E090E0022E02C0880F73
:1011B000991F0A94E2F7842B8C9327960FB6F89424
:1011C000DEBF0FBECDBFCF91DF910895DF93CF93E8
:1011D00000D000D0CDB7DEB789836A83898184309F
:1011E00090F58981282F30E03C832B838B819C8173
:1011F00081309105D1F02B813C81223031052CF4D6
:101200008B819C81009761F01EC02B813C81223034
:10121000310581F08B819C818330910581F013C071
:10122000EBE3F0E08A8180830EC0E8E3F0E08A819E
:10123000808309C0E5E3F0E08A81808304C0E2E3B3
:10124000F0E08A8180830F900F900F900F90CF91E4
:10125000DF910895DF93CF9300D000D0CDB7DEB7F4
:1012600089836A838981843090F58981282F30E0D1
:101270003C832B838B819C8181309105D1F02B8124
:101280003C81223031052CF48B819C81009761F0E8
:101290001EC02B813C812230310581F08B819C81E5
:1012A0008330910581F013C0EAE3F0E08A81808306
:1012B0000EC0E7E3F0E08A81808309C0E4E3F0E058
:1012C0008A81808304C0E1E3F0E08A8180830F900B
:1012D0000F900F900F90CF91DF910895DF93CF93F0
:1012E00000D000D00F92CDB7DEB78A836B838A819E
:1012F000843008F06BC08B81883008F067C08A8129
:10130000282F30E03D832C834C815D814130510595
:1013100041F18C819D818230910534F42C813D8195
:101320002115310561F052C04C815D81423051057B
:1013300051F18C819D8183309105B9F147C0E9E37A
:10134000F0E08081282F30E08B81882F90E0A90188
:1013500002C0559547958A95E2F7CA018170898345
:1013600035C0E6E3F0E08081282F30E08B81882FC4
:1013700090E0A90102C0559547958A95E2F7CA0108
:101380008170898323C0E3E3F0E08081282F30E07F
:101390008B81882F90E0A90102C0559547958A95C9
:1013A000E2F7CA018170898311C0E0E3F0E0808137
:1013B000282F30E08B81882F90E0A90102C055953D
:1013C00047958A95E2F7CA018170898389810F90D8
:1013D0000F900F900F900F90CF91DF910895DF93B2
:1013E000CF93CDB7DEB7E8970FB6F894DEBF0FBE48
:1013F000CDBF80E090E0A0E0B0E08DAB9EABAFABA6
:10140000B8AF6DA97EA98FA998AD20E030E04AEF72
:1014100054E40E941702DC01CB0189AB9AABABAB61
:10142000BCAB69A97AA98BA99CA920E030E040E86F
:101430005FE30E94710388232CF481E090E098AB75
:101440008FA73FC069A97AA98BA99CA920E03FEF8B
:101450004FE757E40E94110318164CF56DA97EA9B9
:101460008FA998AD20E030E040E251E40E941702DD
:10147000DC01CB01BC01CD010E944100DC01CB01AC
:1014800098AB8FA70FC088EC90E09EA78DA78DA585
:101490009EA50197F1F79EA78DA78FA598A9019703
:1014A00098AB8FA78FA598A9009769F714C069A971
:1014B0007AA98BA99CA90E944100DC01CB0198ABC1
:1014C0008FA78FA598A99CA78BA78BA59CA50197F3
:1014D000F1F79CA78BA788E30E94D60B80E090E0F1
:1014E000A0E8BFE38FA398A7A9A7BAA76FA178A583
:1014F00089A59AA520E030E04AEF54E40E94170243
:10150000DC01CB018BA39CA3ADA3BEA36BA17CA1EB
:101510008DA19EA120E030E040E85FE30E947103CE
:1015200088232CF481E090E09AA389A33FC06BA1AB
:101530007CA18DA19EA120E03FEF4FE757E40E94E0
:10154000110318164CF56FA178A589A59AA520E07E
:1015500030E040E251E40E941702DC01CB01BC0103
:10156000CD010E944100DC01CB019AA389A30FC0E9
:1015700088EC90E098A38F8F8F8D98A10197F1F759
:1015800098A38F8F89A19AA101979AA389A389A172
:101590009AA1009769F714C06BA17CA18DA19EA1AF
:1015A0000E944100DC01CB019AA389A389A19AA1E1
:1015B0009E8F8D8F8D8D9E8D0197F1F79E8F8D8FD4
:1015C0008EE00E94D60B80E090E0A0E8BFE3898F18
:1015D0009A8FAB8FBC8F698D7A8D8B8D9C8D20E01F
:1015E00030E04AEF54E40E941702DC01CB018D8BFE
:1015F0009E8BAF8BB88F6D897E898F89988D20E007
:1016000030E040E85FE30E94710388232CF481E01E
:1016100090E09C8B8B8B3FC06D897E898F89988DE4
:1016200020E03FEF4FE757E40E94110318164CF5F6
:10163000698D7A8D8B8D9C8D20E030E040E251E405
:101640000E941702DC01CB01BC01CD010E944100C8
:10165000DC01CB019C8B8B8B0FC088EC90E09A8BCC
:10166000898B89899A890197F1F79A8B898B8B8964
:101670009C8901979C8B8B8B8B899C89009769F740
:1016800014C06D897E898F89988D0E944100DC018C
:10169000CB019C8B8B8B8B899C89988B8F878F85BB
:1016A00098890197F1F7988B8F8781E00E94D60B7C
:1016B00080E090E0A0E8BFE38B879C87AD87BE8782
:1016C0006B857C858D859E8520E030E04AEF54E473
:1016D0000E941702DC01CB018F839887A987BA8704
:1016E0006F81788589859A8520E030E040E85FE366
:1016F0000E94710388232CF481E090E09E838D8307
:101700003FC06F81788589859A8520E03FEF4FE75C
:1017100057E40E94110318164CF56B857C858D8566
:101720009E8520E030E040E251E40E941702DC0197
:10173000CB01BC01CD010E944100DC01CB019E83A5
:101740008D830FC088EC90E09C838B838B819C8180
:101750000197F1F79C838B838D819E8101979E83F6
:101760008D838D819E81009769F714C06F81788584
:1017700089859A850E944100DC01CB019E838D837F
:101780008D819E819A83898389819A810197F1F75E
:101790009A83898386E00E94D60BE8960FB6F89468
:1017A000DEBF0FBECDBFCF91DF910895DF93CF9302
:1017B0000F92CDB7DEB7898382E060E040E00E94FF
:1017C000D60682E061E040E00E94D60682E062E058
:1017D00041E00E94D60683E069810E94E60882E02B
:1017E00062E040E00E94D6060F90CF91DF9108950D
:1017F000DF93CF93CDB7DEB7E9970FB6F894DEBF8E
:101800000FBECDBF89AF82E060E041E00E94D60606
:1018100080E090E0A0E8BFE38DAB9EABAFABB8AF8C
:101820006DA97EA98FA998AD20E030E04AEF54E47D
:101830000E941702DC01CB0189AB9AABABABBCAB0E
:1018400069A97AA98BA99CA920E030E040E85FE370
:101850000E94710388232CF481E090E098AB8FA75D
:101860003FC069A97AA98BA99CA920E03FEF4FE767
:1018700057E40E94110318164CF56DA97EA98FA993
:1018800098AD20E030E040E251E40E941702DC0114
:10189000CB01BC01CD010E944100DC01CB0198AB22
:1018A0008FA70FC088EC90E09EA78DA78DA59EA561
:1018B0000197F1F79EA78DA78FA598A9019798ABDF
:1018C0008FA78FA598A9009769F714C069A97AA96D
:1018D0008BA99CA90E944100DC01CB0198AB8FA78A
:1018E0008FA598A99CA78BA78BA59CA50197F1F71D
:1018F0009CA78BA782E061E040E00E94D60680E0D2
:1019000090E0A0E8BFE38FA398A7A9A7BAA76FA10B
:1019100078A589A59AA520E030E04AEF54E40E941A
:101920001702DC01CB018BA39CA3ADA3BEA36BA1CB
:101930007CA18DA19EA120E030E040E85FE30E9401
:10194000710388232CF481E090E09AA389A33FC01F
:101950006BA17CA18DA19EA120E03FEF4FE757E452
:101960000E94110318164CF56FA178A589A59AA5B8
:1019700020E030E040E251E40E941702DC01CB019C
:10198000BC01CD010E944100DC01CB019AA389A3D7
:101990000FC088EC90E098A38F8F8F8D98A101974E
:1019A000F1F798A38F8F89A19AA101979AA389A390
:1019B00089A19AA1009769F714C06BA17CA18DA1A0
:1019C0009EA10E944100DC01CB019AA389A389A1B9
:1019D0009AA19E8F8D8F8D8D9E8D0197F1F79E8F91
:1019E0008D8F82E062E041E00E94D60680E090E0C8
:1019F000A0E8BFE3898F9A8FAB8FBC8F698D7A8DFA
:101A00008B8D9C8D20E030E04AEF54E40E94170259
:101A1000DC01CB018D8B9E8BAF8BB88F6D897E895E
:101A20008F89988D20E030E040E85FE30E947103E9
:101A300088232CF481E090E09C8B8B8B3FC06D89D8
:101A40007E898F89988D20E03FEF4FE757E40E9411
:101A5000110318164CF5698D7A8D8B8D9C8D20E0C5
:101A600030E040E251E40E941702DC01CB01BC01EE
:101A7000CD010E944100DC01CB019C8B8B8B0FC000
:101A800088EC90E09A8B898B89899A890197F1F784
:101A90009A8B898B8B899C8901979C8B8B8B8B89EB
:101AA0009C89009769F714C06D897E898F89988D0C
:101AB0000E944100DC01CB019C8B8B8B8B899C8924
:101AC000988B8F878F8598890197F1F7988B8F87EF
:101AD00083E069AD0E94E60880E090E0A0E8BFE303
:101AE0008B879C87AD87BE876B857C858D859E8522
:101AF00020E030E04AEF54E40E941702DC01CB0101
:101B00008F839887A987BA876F81788589859A8519
:101B100020E030E040E85FE30E94710388232CF46A
:101B200081E090E09E838D833FC06F8178858985B9
:101B30009A8520E03FEF4FE757E40E941103181603
:101B40004CF56B857C858D859E8520E030E040E2FC
:101B500051E40E941702DC01CB01BC01CD010E94BF
:101B60004100DC01CB019E838D830FC088EC90E0A7
:101B70009C838B838B819C810197F1F79C838B8362
:101B80008D819E8101979E838D838D819E8100979B
:101B900069F714C06F81788589859A850E94410014
:101BA000DC01CB019E838D838D819E819A83898305
:101BB00089819A810197F1F79A83898382E062E0B3
:101BC00040E00E94D606E9960FB6F894DEBF0FBE3D
:101BD000CDBFCF91DF910895DF93CF9300D00F92C7
:101BE000CDB7DEB79B838A8319820EC08981282FE7
:101BF00030E08A819B81FC01E20FF31F80810E940B
:101C0000F80B89818F5F89838981282F30E08A8151
:101C10009B81FC01E20FF31F8081882339F70F902D
:101C20000F900F90CF91DF910895DF93CF9300D065
:101C30000F92CDB7DEB78A836B838A818230C8F476
:101C40008B818031B0F48A81882F90E000249695B2
:101C500087950794969587950794982F802D982FB0
:101C60008B81890F898389818068898389810E941A
:101C7000D60B0F900F900F90CF91DF910895DF93C7
:101C8000CF93CDB7DEB72C970FB6F894DEBF0FBE5B
:101C9000CDBF80E060E040E00E94DE0783E06FEFB0
:101CA0000E942A0982E060E041E00E94DE0782E0B3
:101CB00061E041E00E94DE0782E062E041E00E94D4
:101CC000DE0781E060E041E00E94DE0781E061E044
:101CD00040E00E94DE070E94EF090E94630681E057
:101CE00061E041E00E94D60681E061E00E946E0959
:101CF0008B8380E00E94A9069A8389838B81882345
:101D000009F047C081E060E041E00E94D60680E033
:101D100060E00E94150E80E690E00E94EC0D898143
:101D20009A81CC01A0E0B0E0BC01CD010E94F50396
:101D3000DC01CB01BC01CD012AE939E949E950E4D4
:101D40000E941702DC01CB018C839D83AE83BF838D
:101D50006C817D818E819F810E94A103DC01CB017A
:101D60009E01285F3F4FB9014AE050E00E94530FA7
:101D700081E060E00E94150ECE0108960E94EC0DF5
:101D800081E066E00E94150E89E690E00E94EC0D6D
:101D9000ABCF8B81813009F0A7CF81E060E040E0DC
:101DA0000E94D60680E060E00E94150E8CE690E06E
:101DB0000E94EC0D89819A81CC01A0E0B0E0BC01C9
:101DC000CD010E94F503DC01CB01BC01CD012AE964
:101DD00039E949E950E40E941702DC01CB019C017A
:101DE000AD01CA01B9010E94EA01DC01CB018C837B
:101DF0009D83AE83BF836C817D818E819F810E9494
:101E0000A103DC01CB019E01285F3F4FB9014AE0ED
:101E100050E00E94530F81E060E00E94150ECE0159
:101E200008960E94EC0D81E066E00E94150E89E69E
:101E300090E00E94EC0D58CF2F923F924F925F920C
:101E40006F927F928F929F92AF92BF92CF92DF92CA
:101E5000EF92FF920F931F93CF93DF93CDB7DEB72F
:101E6000CA1BDB0B0FB6F894DEBF0FBECDBF0994C3
:101E70002A88398848885F846E847D848C849B841A
:101E8000AA84B984C884DF80EE80FD800C811B8128
:101E9000AA81B981CE0FD11D0FB6F894DEBF0FBE57
:101EA000CDBFED010895FB019F01E8944230C4F0DD
:101EB0004532B4F44A3029F497FB1EF4909581958D
:101EC0009F4F642F77270E94840F805D8A330CF028
:101ED000895D8193CB010097A1F716F45DE25193E0
:101EE0001082C9010C94740FDC01FC01672F719101
:101EF0007723E1F7329704C07C916D9370836291F0
:101F0000AE17BF07C8F30895AA1BBB1B51E107C05A
:101F1000AA1FBB1FA617B70710F0A61BB70B881F79
:101F2000991F5A95A9F780959095BC01CD01089508
:041F3000F894FFCF53
:101F34004D4F44453A203556006D56004D4F4445AB
:101F44003A2031305600000000000000000000017B
:101F54000202030303030404040404040404050543
:101F6400050505050505050505050505050506061B
:101F740006060606060606060606060606060606FD
:101F840006060606060606060606060606060707EB
:101F940007070707070707070707070707070707CD
:101FA40007070707070707070707070707070707BD
:101FB40007070707070707070707070707070707AD
:101FC400070707070707070707070707070708089B
:101FD400080808080808080808080808080808087D
:101FE400080808080808080808080808080808086D
:101FF400080808080808080808080808080808085D
:10200400080808080808080808080808080808084C
:10201400080808080808080808080808080808083C
:10202400080808080808080808080808080808082C
:10203400080808080808080808080808080808081C
:0E20440008080808080808080808080808081E
:00000001FF
